:0400000058EF00F0C5
:100008005982FACF01F0FBCF02F0D9CF03F0DACF53
:1000180004F0F2AC12EF00F014EF00F04EEF00F035
:100028009DA819EF00F01BEF00F031EF00F09EA83B
:1000380020EF00F022EF00F031EF00F002D82FEFB0
:1000480000F00500FA6E5650FD6E5750FE6EF850DF
:10005800FF6EFA5012004EEF00F09DAA36EF00F046
:1000680038EF00F04EEF00F09EAA3DEF00F03FEFB2
:1000780000F04EEF00F002D84CEF00F00500FA6EE9
:100088005450FD6E5550FE6EF850FF6EFA50120037
:100098004EEF00F004C0DAFF03C0D9FF02C0FBFF37
:0C00A80001C0FAFF5992110049EF0FF05F
:101000000020766575742074752062617272657255
:10101000206F75206465626172726572206C612058
:10102000706F7274652E00002150800B2A6E215063
:101030002124306E20AE1FEF08F021EF08F022EFE0
:1010400008F030803050D8B428EF08F02AEF08F0CC
:101050003DEF08F03028D8A430EF08F032EF08F068
:101060003AEF08F0000E1E6E000E1F6E000E206E8E
:10107000000E216E208E45EF08F0000E1E6E000E51
:101080001F6E000E206E000E216E2550800B2A1A56
:10109000255025242B6E24AE50EF08F052EF08F0B7
:1010A00053EF08F02B802B50D8B459EF08F05BEFCA
:1010B00008F06EEF08F02B28D8A461EF08F063EF7A
:1010C00008F06BEF08F0000E226E000E236E000E8B
:1010D000246E000E256E248E76EF08F0000E226E30
:1010E000000E236E000E246E000E256E2B50D8B419
:1010F0007CEF08F07EEF08F086EF08F03050D8A4BF
:1011000084EF08F086EF08F090EF08F0000E1E6EF6
:10111000000E1F6E000E206E000E216E28EF0AF0EA
:1011200024501E02F3CF35F0F4CF36F035502C6E3C
:101130002D6A2E6A2F6A3650316E326A336A346AEB
:1011400023501F02F3CF35F0F4CF36F035502C2664
:10115000000E2D222E222F2236503126000E322252
:101160003322342222502002F3CF35F0F4CF36F070
:1011700035502C26000E2D222E222F2236503126BD
:10118000000E3222332234222EC02FF02DC02EF03A
:101190002CC02DF02C6A22501F02F3CF35F0F4CF73
:1011A00036F035502C2636502D22000E2E22000E01
:1011B0002F2223501E02F3CF35F0F4CF36F03550F6
:1011C0002C2636502D22000E2E22000E2F222EC04D
:1011D0002FF02DC02EF02CC02DF02C6A22501E02B4
:1011E000F3CF35F0F4CF36F035502C2636502D2283
:1011F000000E2E22000E2F2224501F02F3CF35F0B6
:10120000F4CF36F03550312636503222000E3322DC
:10121000000E342223502002F3CF35F0F4CF36F005
:101220003550312636503222000E3322000E342241
:1012300024502002F3CF35F0F4CF36F03550266E2F
:101240003650276E286A296A28C029F027C028F05E
:1012500026C027F0266A26503126275032222850F1
:101260003322295034222CC026F02DC027F02EC066
:1012700028F02FC029F0190E43EF09F0D890293239
:10128000283227322632E82E3EEF09F0265031264A
:101290002750322228503322295034222EC02FF0DA
:1012A0002DC02EF02CC02DF02C6A2B5030C026F013
:1012B000276A2626000E2722820E2624356EFF0E70
:1012C0002720366E79EF09F0D89031363236333632
:1012D00034362FAE6EEF09F070EF09F071EF09F0C0
:1012E0003180D8902C362D362E362F363506D8A0A4
:1012F000360633AE7EEF09F080EF09F064EF09F0B7
:10130000000E2B6E2FAE87EF09F089EF09F0ADEFDD
:1013100009F0FF0E2C14266EFF0E2D14276EFF0E03
:101320002E14286E7F0E2F14296E26502710281099
:101330002910D8B49EEF09F0A0EF09F0A4EF09F04E
:10134000010E2B6EADEF09F031A0A9EF09F0ABEF64
:1013500009F0ADEF09F0A0EF09F02B50D8B4B3EFCE
:1013600009F0B5EF09F0D9EF09F0010E3126000EB2
:1013700032223322342234A0C0EF09F0C2EF09F048
:10138000D9EF09F031C026F032C027F033C028F081
:1013900034C029F02934293228322732263226C097
:1013A00031F027C032F028C033F029C034F0354A7C
:1013B000362A36BEE4EF09F0365008E13528D8A0C9
:1013C000E4EF09F0E6EF09F0F0EF09F0000E316EFE
:1013D000000E326E800E336E7F0E346E1EEF0AF0FA
:1013E00036BEFDEF09F0365006E13504D8B0FBEF0C
:1013F00009F0FDEF09F009EF0AF0000E316E000E62
:10140000326E000E336E000E346E000E2A6E1EEF2A
:101410000AF035C030F0FF0E3116FF0E32167F0E87
:101420003316000E341630A018EF0AF01AEF0AF047
:101430001BEF0AF0338ED8903030346E2A503412BD
:1014400031C01EF032C01FF033C020F034C021F094
:1014500012000850800B156E085008241C6E07AE51
:1014600034EF0AF036EF0AF037EF0AF01C801C5018
:10147000D8B43DEF0AF03FEF0AF054EF0AF01C2811
:10148000D8A445EF0AF047EF0AF04FEF0AF0000E3C
:10149000056E000E066E000E076E000E086E078EBB
:1014A000000E086E5CEF0AF0000E056E000E066E70
:1014B000000E076E000E086E0C50800B151A0C50B3
:1014C0000C241D6E0BAE67EF0AF069EF0AF06AEFAD
:1014D0000AF01D801D50D8B470EF0AF072EF0AF0C8
:1014E00087EF0AF01D28D8A478EF0AF07AEF0AF007
:1014F00082EF0AF0000E096E000E0A6E000E0B6EEF
:10150000000E0C6E0B8E000E0C6E8FEF0AF0000EAC
:10151000096E000E0A6E000E0B6E000E0C6E095066
:101520000A100B100C10D8A498EF0AF09AEF0AF0EA
:10153000B2EF0AF0000E056E000E066E000E076E8A
:10154000000E086E800E07127F0E0812155008124A
:1015500005C005F006C006F007C007F008C008F097
:10156000F5EF0BF01C50D8A4B8EF0AF0BAEF0AF070
:10157000C4EF0AF0000E056E000E066E000E076E38
:10158000000E086EF5EF0BF01D501CC00DF00E6A3A
:101590000D5E000E0E5A7F0E0D24166E000E0E20EC
:1015A000176E05C011F006C012F007C013F008C096
:1015B00014F0000E056E000E066E000E076E000E93
:1015C000086E000E186E000E196E000E1A6E000ED8
:1015D0001B6E000E1D6E25EF0BF01D50D8B4F3EFFF
:1015E0000AF0F5EF0AF00CEF0BF0D8901136123636
:1015F00013361436D89005360636073608361BAE35
:1016000004EF0BF006EF0BF007EF0BF00580D8901E
:10161000183619361A361B360950115C0A50125802
:101620000B5013580C501458D8A019EF0BF01BEFA7
:101630000BF024EF0BF01B8C0950115E0A50125A6C
:101640000B50135A0C50145A1D2A190E1D642BEFFF
:101650000BF02DEF0BF0EDEF0AF0115012101310FC
:101660001410D8B436EF0BF038EF0BF050EF0BF04E
:10167000188050EF0BF0D89005360636073608363E
:101680001BAE45EF0BF047EF0BF048EF0BF005807A
:10169000D890183619361A361B361606D8A01706F3
:1016A00007AE55EF0BF057EF0BF03BEF0BF0000ED2
:1016B0001D6E1BAE5EEF0BF060EF0BF084EF0BF0D6
:1016C000FF0E18140D6EFF0E19140E6EFF0E1A1475
:1016D0000F6E7F0E1B14106E0D500E100F10101099
:1016E000D8B475EF0BF077EF0BF07BEF0BF0010E3A
:1016F0001D6E84EF0BF005A080EF0BF082EF0BF076
:1017000084EF0BF077EF0BF01D50D8B48AEF0BF09D
:101710008CEF0BF0B0EF0BF0010E0526000E062249
:101720000722082208A097EF0BF099EF0BF0B0EF1B
:101730000BF005C00DF006C00EF007C00FF008C09A
:1017400010F0103410320F320E320D320DC005F091
:101750000EC006F00FC007F010C008F0164A172A96
:1017600017BEBBEF0BF0175008E11628D8A0BBEF4F
:101770000BF0BDEF0BF0C8EF0BF0000E176E166804
:10178000000E056E000E066E000E076E000E086E4F
:1017900017BED5EF0BF0175006E11604D8B0D3EF03
:1017A0000BF0D5EF0BF0E3EF0BF0000E176E000E11
:1017B000166E000E056E000E066E000E076E000E11
:1017C000086E000E156E16C01CF01CA0EAEF0BF0A0
:1017D000ECEF0BF0EFEF0BF0078EF0EF0BF0079E46
:1017E000D8901C30086EA6EF0AF0120007340834B7
:1017F0000E6E0E50D8A4FFEF0BF001EF0CF00BEFC4
:101800000CF0000E056E000E066E000E076E000E48
:10181000086E78EF0CF005C009F006C00AF007C0AA
:101820000BF008C00CF0200E1BEF0CF0D8900C321F
:101830000B320A320932E82E16EF0CF009500D6E09
:10184000078EFF0E0516FF0E0616FF0E0716000E7A
:101850000816960E0E5E0EBE32EF0CF030EF0CF056
:1018600048EF0CF00E50800A970FD8B03AEF0CF00A
:101870003CEF0CF03EEF0CF001EF0CF0D89008328A
:101880000732063205320E3E3EEF0CF060EF0CF0F0
:101890001F0E0E644EEF0CF050EF0CF058EF0CF0F2
:1018A00001EF0CF0D89005360636073608360E06DE
:1018B0000E50D8A45EEF0CF060EF0CF052EF0CF07D
:1018C0000D50D8B466EF0CF068EF0CF070EF0CF030
:1018D000081E071E061E056C000E0622072208229F
:1018E00005C005F006C006F007C007F008C008F004
:1018F00012006FEC0FF0F28EF28C010E1E6E100EC5
:101900001F6E5CEC0FF095EC0FF08EEC0FF098EC86
:101910000EF000019C6F000E986F000E996FF00E94
:101920009A6F400E9B6F98C037F099C038F09AC0FC
:1019300039F09BC03AF0E1EC0CF037C043F038C00E
:1019400044F007EC0FF0010E1E6E100E1F6E5CECE3
:101950000FF04C0E00019C19D8A4B1EF0CF0B3EFBE
:101960000CF0C3EF0CF0000E376E000E386E600EF8
:10197000396E400E3A6EE1EC0CF037C043F038C0DF
:1019800044F007EC0FF0550E00019C19D8A4CBEFE2
:101990000CF0CDEF0CF083EF0CF0000E376E000E64
:1019A000386E380E396E410E3A6EE1EC0CF037C0ED
:1019B00043F038C044F007EC0FF083EF0CF058EF21
:1019C00000F0EE0E226E930E236EA30E246E3C0EDC
:1019D000256E000E096E000E0A6EC80E0B6E420ECA
:1019E0000C6E37C005F038C006F039C007F03AC0B9
:1019F00008F029EC0AF005C01EF006C01FF007C071
:101A000020F008C021F014EC08F01EC03FF01FC009
:101A100040F020C041F021C042F0BD0E096E370EEB
:101A20000A6E060E0B6E3D0E0C6E3FC005F040C0F8
:101A300006F041C007F042C008F029EC0AF005C0EA
:101A40001EF006C01FF007C020F008C021F0000EF5
:101A5000226EC00E236E7F0E246E440E256E14EC93
:101A600008F01EC03BF01FC03CF020C03DF021C07C
:101A70003EF03BC005F03CC006F03DC007F03EC064
:101A800008F0F6EC0BF005C037F006C038F0120095
:101A9000800E4F24D96EDA6A000EDA22000EDF6E55
:101AA000ABA455EF0DF057EF0DF06CEF0DF0800E7D
:101AB0004F24D96EDA6A000EDA220001DF8202D8E2
:101AC0006CEF0DF00500FA6E5250FD6E5350FE6E35
:101AD000F850FF6EFA501200ABA271EF0DF073EFE9
:101AE0000DF088EF0DF0800E4F24D96EDA6A000EEB
:101AF000DA220001DF8402D888EF0DF00500FA6ECB
:101B00009F51FD6EA051FE6EF850FF6EFA5012000C
:101B1000800E4F24D96EDA6A000EDA22DF50D8B474
:101B200094EF0DF096EF0DF0A6EF0DF002D8A4EFB4
:101B30000DF005000001FA6E9D51FD6E9E51FE6E86
:101B4000F850FF6EFA501200A8EF0DF020EC0FF0E5
:101B5000120009500A10D8B4B0EF0DF0B2EF0DF03A
:101B6000BBEF0DF009500A10D8A4B9EF0DF0BBEF90
:101B70000DF0C0EF0DF00750A3EC0FF0F3EF0DF0F8
:101B800020EE09F00950D9260A50DA22DE50DE1084
:101B9000D8B4CDEF0DF0CFEF0DF0EAEF0DF020EE61
:101BA00009F00950D9260A50DA2210EE03F0095044
:101BB000E1260A50E222DE50E65CE650800A0F6E13
:101BC000DE50800A0F58D8B0E8EF0DF0EAEF0DF0C4
:101BD000F3EF0DF020EE03F00950D9260A50DA2277
:101BE000DE2A000EDD22120012C0D9FF13C0DAFF78
:101BF000DECFF6FFDDCFF7FF0800F550250AD8A4A9
:101C000004EF0EF006EF0EF01EEF0EF012C0D9FF3B
:101C100013C0DAFFDE2A000EDD22000E486E000E31
:101C2000476E47C04BF049684A6812C0D9FF13C0DD
:101C3000DAFFDE2A000EDD2232EF0EF012C0D9FFED
:101C400013C0DAFFDECFF6FFDDCFF7FF0800F55057
:101C5000076E086A10C009F011C00AF0A9EC0DF077
:101C600015EF0EF012009D9A900E056E1A0E066E7C
:101C7000ADEC0FF09D98CE0E056E1D0E066EA8EC15
:101C80000FF0080EA76E900EAB6E240EAC6ECF0E4A
:101C9000AF6E000E7D6E920E056E1F0E066EB7ECD7
:101CA0000FF0820E056E1F0E066EB2EC0FF0880E5E
:101CB000056E1F0E066EBCEC0FF0000E4C6E000E93
:101CC000516E000E506E080E586E000E4F6E000ED4
:101CD0004E6E000E4D6E9D8A1200056E5850D8B49F
:101CE00074EF0EF076EF0EF06EEF0EF09DB87BEF16
:101CF0000EF07DEF0EF081EF0EF005C0ADFF96EF18
:101D00000EF09D98900E5124D96EDA6A000EDA22F8
:101D100005C0DFFF512A070E516491EF0EF093EFDB
:101D20000EF095EF0EF0000E516E58069D881200D1
:101D30004D50D8B49EEF0EF0A0EF0EF098EF0EF0DD
:101D4000800E4E24D96EDA6A000EDA22DF504C6E15
:101D5000880E4E24D96EDA6A000EDA22DF50056E44
:101D60004E2A070E4E64B7EF0EF0B9EF0EF0BBEF40
:101D70000EF0000E4E6E9D9A4D069D8A0550120083
:101D800018C01CF019C01DF0D4EF0EF016C010F0F2
:101D900017C011F01C0E126E000E136E1AC014F054
:101DA0001BC015F0F4EC0DF01CC0F6FF1DC0F7FFD2
:101DB0000800F5500009D8A4E0EF0EF0E2EF0EF0B5
:101DC000C6EF0EF0000E176E000E166E1200080E13
:101DD0005860EDEF0EF0EFEF0EF005EF0FF0900E04
:101DE0005024D96EDA6A000EDA22DF50AD6E502A26
:101DF000070E5064FEEF0EF000EF0FF002EF0FF051
:101E0000000E506E582A06EF0FF09D98120043C046
:101E100045F044C046F0D89046324532D89046321C
:101E2000453245500F01516F43C045F0030E451632
:101E3000453AF00E45165051CF0B4510506F120029
:101E4000880E4F24D96EDA6A000EDA22AECFDFFF99
:101E50004F2A070E4F642FEF0FF031EF0FF033EFE3
:101E60000FF0000E4F6E4D2A1200000E896E000E0C
:101E70008A6E000E8B6EEF0E926E9368BB0E946EA0
:101E80001F0E0F015D6F070E5C6F000E5B6FF18E12
:101E9000120000EE60F0380EEE6AE806FDE100EE9A
:101EA00047F00B0EEE6AE806FDE159905992000EDC
:101EB000F86E000179EF0CF0200E206E000E216EFE
:101EC000000E166E000E176E1EC018F01FC019F01F
:101ED000200E1A6E000E1B6EC0EC0EF01200C7EC46
:101EE0000FF035EC0FF085EC0FF07CEC0FF09CEC74
:101EF0000FF033EC0EF012001C0E0F01506F000EAD
:101F0000516F000E526F99921200620ED36E000E46
:101F1000D26E000E9B6E000E9A6E1200FE0E6DECDD
:101F20000EF0510E6DEC0EF01200FE0E6DEC0EF088
:101F3000410E6DEC0EF01200CB68000ECC6E9E923E
:101F4000040ECA6E1200066E06506DEC0EF0120002
:101F500005C056F006C057F0120005C054F006C088
:101F600055F0120005C09FF006C0A0F0120005C099
:101F700052F006C053F0120005C09DF006C09EF05E
:101F80001200AB98AB88120020EC0FF01200D09E2C
:041F90001200120029
:020000040030CA
:0E00000015077F7CFF8991FF0FC00FE00F40B6
:00000001FF
